{
  "contractName": "ListRequest",
  "abi": [
    {
      "constant": true,
      "inputs": [
        {
          "name": "",
          "type": "uint256"
        }
      ],
      "name": "AllDssList",
      "outputs": [
        {
          "name": "Num",
          "type": "uint256"
        },
        {
          "name": "Name",
          "type": "string"
        },
        {
          "name": "HsptList",
          "type": "string"
        }
      ],
      "payable": false,
      "stateMutability": "view",
      "type": "function"
    },
    {
      "constant": true,
      "inputs": [
        {
          "name": "",
          "type": "uint256"
        }
      ],
      "name": "AllHsptList",
      "outputs": [
        {
          "name": "Num",
          "type": "uint256"
        },
        {
          "name": "Name",
          "type": "string"
        },
        {
          "name": "Ip",
          "type": "string"
        }
      ],
      "payable": false,
      "stateMutability": "view",
      "type": "function"
    },
    {
      "constant": false,
      "inputs": [
        {
          "name": "_Name",
          "type": "string"
        },
        {
          "name": "_Ip",
          "type": "string"
        },
        {
          "name": "_DssList",
          "type": "string"
        }
      ],
      "name": "loadHsptInfo",
      "outputs": [],
      "payable": false,
      "stateMutability": "nonpayable",
      "type": "function"
    },
    {
      "constant": true,
      "inputs": [],
      "name": "getAllHpstName",
      "outputs": [
        {
          "name": "",
          "type": "string"
        }
      ],
      "payable": false,
      "stateMutability": "view",
      "type": "function"
    },
    {
      "constant": true,
      "inputs": [
        {
          "name": "_Name",
          "type": "string"
        }
      ],
      "name": "getHpstIp",
      "outputs": [
        {
          "name": "",
          "type": "string"
        }
      ],
      "payable": false,
      "stateMutability": "view",
      "type": "function"
    },
    {
      "constant": true,
      "inputs": [
        {
          "name": "_DssName",
          "type": "string"
        }
      ],
      "name": "getHpstFromDss",
      "outputs": [
        {
          "name": "",
          "type": "string"
        }
      ],
      "payable": false,
      "stateMutability": "view",
      "type": "function"
    }
  ],
  "bytecode": "0x608060405234801561001057600080fd5b50612218806100206000396000f300608060405260043610610078576000357c0100000000000000000000000000000000000000000000000000000000900463ffffffff16806338ab36fd1461007d5780634293b33c1461015f5780635e0d7bd214610254578063656f8bb1146103365780636fe08be11461044f578063b4b403c5146104df575b600080fd5b34801561008957600080fd5b506100e4600480360381019080803590602001908201803590602001908080601f01602080910402602001604051908101604052809392919081815260200183838082843782019150505050505091929192905050506105f8565b6040518080602001828103825283818151815260200191508051906020019080838360005b83811015610124578082015181840152602081019050610109565b50505050905090810190601f1680156101515780820380516001836020036101000a031916815260200191505b509250505060405180910390f35b34801561016b57600080fd5b50610252600480360381019080803590602001908201803590602001908080601f0160208091040260200160405190810160405280939291908181526020018383808284378201915050505050509192919290803590602001908201803590602001908080601f0160208091040260200160405190810160405280939291908181526020018383808284378201915050505050509192919290803590602001908201803590602001908080601f016020809104026020016040519081016040528093929190818152602001838380828437820191505050505050919291929050505061082b565b005b34801561026057600080fd5b506102bb600480360381019080803590602001908201803590602001908080601f0160208091040260200160405190810160405280939291908181526020018383808284378201915050505050509192919290505050610e7a565b6040518080602001828103825283818151815260200191508051906020019080838360005b838110156102fb5780820151818401526020810190506102e0565b50505050905090810190601f1680156103285780820380516001836020036101000a031916815260200191505b509250505060405180910390f35b34801561034257600080fd5b5061036160048036038101908080359060200190929190505050611021565b604051808481526020018060200180602001838103835285818151815260200191508051906020019080838360005b838110156103ab578082015181840152602081019050610390565b50505050905090810190601f1680156103d85780820380516001836020036101000a031916815260200191505b50838103825284818151815260200191508051906020019080838360005b838110156104115780820151818401526020810190506103f6565b50505050905090810190601f16801561043e5780820380516001836020036101000a031916815260200191505b509550505050505060405180910390f35b34801561045b57600080fd5b5061046461118a565b6040518080602001828103825283818151815260200191508051906020019080838360005b838110156104a4578082015181840152602081019050610489565b50505050905090810190601f1680156104d15780820380516001836020036101000a031916815260200191505b509250505060405180910390f35b3480156104eb57600080fd5b5061050a60048036038101908080359060200190929190505050611306565b604051808481526020018060200180602001838103835285818151815260200191508051906020019080838360005b83811015610554578082015181840152602081019050610539565b50505050905090810190601f1680156105815780820380516001836020036101000a031916815260200191505b50838103825284818151815260200191508051906020019080838360005b838110156105ba57808201518184015260208101905061059f565b50505050905090810190601f1680156105e75780820380516001836020036101000a031916815260200191505b509550505050505060405180910390f35b60606000806001805490501415610646576040805190810160405280600f81526020017f6e6f20686f73707469616c2079657400000000000000000000000000000000008152509150610825565b600090505b6001805490508110156107ec5761071a8360018381548110151561066b57fe5b90600052602060002090600302016001018054600181600116156101000203166002900480601f0160208091040260200160405190810160405280929190818152602001828054600181600116156101000203166002900480156107105780601f106106e557610100808354040283529160200191610710565b820191906000526020600020905b8154815290600101906020018083116106f357829003601f168201915b505050505061146f565b156107df5760018181548110151561072e57fe5b90600052602060002090600302016002018054600181600116156101000203166002900480601f0160208091040260200160405190810160405280929190818152602001828054600181600116156101000203166002900480156107d35780601f106107a8576101008083540402835291602001916107d3565b820191906000526020600020905b8154815290600101906020018083116107b657829003601f168201915b50505050509150610825565b808060010191505061064b565b6040805190810160405280600e81526020017f6e6f20737563682061204873707400000000000000000000000000000000000081525091505b50919050565b60008061083885856115b3565b60008351141561084757610e73565b61085083611775565b915082600290805190602001906108689291906120c7565b50600090505b81811015610e725761091960028054600181600116156101000203166002900480601f01602080910402602001604051908101604052809291908181526020018280546001816001161561010002031660029004801561090f5780601f106108e45761010080835404028352916020019161090f565b820191906000526020600020905b8154815290600101906020018083116108f257829003601f168201915b5050505050611891565b6109bc60038054600181600116156101000203166002900480601f0160208091040260200160405190810160405280929190818152602001828054600181600116156101000203166002900480156109b25780601f10610987576101008083540402835291602001916109b2565b820191906000526020600020905b81548152906001019060200180831161099557829003601f168201915b5050505050611ad2565b610b206000610a6460038054600181600116156101000203166002900480601f016020809104026020016040519081016040528092919081815260200182805460018160011615610100020316600290048015610a5a5780601f10610a2f57610100808354040283529160200191610a5a565b820191906000526020600020905b815481529060010190602001808311610a3d57829003601f168201915b5050505050611cf9565b815481101515610a7057fe5b90600052602060002090600302016002018054600181600116156101000203166002900480601f016020809104026020016040519081016040528092919081815260200182805460018160011615610100020316600290048015610b155780601f10610aea57610100808354040283529160200191610b15565b820191906000526020600020905b815481529060010190602001808311610af857829003601f168201915b505050505086611df1565b6000610bc560038054600181600116156101000203166002900480601f016020809104026020016040519081016040528092919081815260200182805460018160011615610100020316600290048015610bbb5780601f10610b9057610100808354040283529160200191610bbb565b820191906000526020600020905b815481529060010190602001808311610b9e57829003601f168201915b5050505050611cf9565b815481101515610bd157fe5b90600052602060002090600302016002019080519060200190610bf59291906120c7565b50610d8f6000610c9e60038054600181600116156101000203166002900480601f016020809104026020016040519081016040528092919081815260200182805460018160011615610100020316600290048015610c945780601f10610c6957610100808354040283529160200191610c94565b820191906000526020600020905b815481529060010190602001808311610c7757829003601f168201915b5050505050611cf9565b815481101515610caa57fe5b90600052602060002090600302016002018054600181600116156101000203166002900480601f016020809104026020016040519081016040528092919081815260200182805460018160011615610100020316600290048015610d4f5780601f10610d2457610100808354040283529160200191610d4f565b820191906000526020600020905b815481529060010190602001808311610d3257829003601f168201915b50505050506040805190810160405280600181526020017f2c00000000000000000000000000000000000000000000000000000000000000815250611df1565b6000610e3460038054600181600116156101000203166002900480601f016020809104026020016040519081016040528092919081815260200182805460018160011615610100020316600290048015610e2a5780601f10610dff57610100808354040283529160200191610e2a565b820191906000526020600020905b815481529060010190602001808311610e0d57829003601f168201915b5050505050611cf9565b815481101515610e4057fe5b90600052602060002090600302016002019080519060200190610e649291906120c7565b50808060010191505061086e565b5b5050505050565b6060600082511415610ec3576040805190810160405280600f81526020017f696e70757420736f6d657468696e670000000000000000000000000000000000815250905061101c565b600080805490501415610f0d576040805190810160405280600e81526020017f6e6f206469736561736520796574000000000000000000000000000000000000815250905061101c565b60006001805490501415610f58576040805190810160405280600f81526020017f6e6f20686f73707469616c207965740000000000000000000000000000000000815250905061101c565b6000610f6383611cf9565b815481101515610f6f57fe5b90600052602060002090600302016002018054600181600116156101000203166002900480601f0160208091040260200160405190810160405280929190818152602001828054600181600116156101000203166002900480156110145780601f10610fe957610100808354040283529160200191611014565b820191906000526020600020905b815481529060010190602001808311610ff757829003601f168201915b505050505090505b919050565b60008181548110151561103057fe5b9060005260206000209060030201600091509050806000015490806001018054600181600116156101000203166002900480601f0160208091040260200160405190810160405280929190818152602001828054600181600116156101000203166002900480156110e25780601f106110b7576101008083540402835291602001916110e2565b820191906000526020600020905b8154815290600101906020018083116110c557829003601f168201915b505050505090806002018054600181600116156101000203166002900480601f0160208091040260200160405190810160405280929190818152602001828054600181600116156101000203166002900480156111805780601f1061115557610100808354040283529160200191611180565b820191906000526020600020905b81548152906001019060200180831161116357829003601f168201915b5050505050905083565b60608060008060018054905014156111d9576040805190810160405280600f81526020017f6e6f20686f73707469616c2079657400000000000000000000000000000000008152509250611301565b600090505b6001805490508110156112fd576112ad826001838154811015156111fe57fe5b90600052602060002090600302016001018054600181600116156101000203166002900480601f0160208091040260200160405190810160405280929190818152602001828054600181600116156101000203166002900480156112a35780601f10611278576101008083540402835291602001916112a3565b820191906000526020600020905b81548152906001019060200180831161128657829003601f168201915b5050505050611df1565b91506112ee826040805190810160405280600181526020017f2c00000000000000000000000000000000000000000000000000000000000000815250611df1565b915080806001019150506111de565b8192505b505090565b60018181548110151561131557fe5b9060005260206000209060030201600091509050806000015490806001018054600181600116156101000203166002900480601f0160208091040260200160405190810160405280929190818152602001828054600181600116156101000203166002900480156113c75780601f1061139c576101008083540402835291602001916113c7565b820191906000526020600020905b8154815290600101906020018083116113aa57829003601f168201915b505050505090806002018054600181600116156101000203166002900480601f0160208091040260200160405190810160405280929190818152602001828054600181600116156101000203166002900480156114655780601f1061143a57610100808354040283529160200191611465565b820191906000526020600020905b81548152906001019060200180831161144857829003601f168201915b5050505050905083565b6000808251845114151561148657600091506115ac565b600090505b83518110156115a75782818151811015156114a257fe5b9060200101517f010000000000000000000000000000000000000000000000000000000000000090047f0100000000000000000000000000000000000000000000000000000000000000027effffffffffffffffffffffffffffffffffffffffffffffffffffffffffffff1916848281518110151561151d57fe5b9060200101517f010000000000000000000000000000000000000000000000000000000000000090047f0100000000000000000000000000000000000000000000000000000000000000027effffffffffffffffffffffffffffffffffffffffffffffffffffffffffffff191614151561159a57600091506115ac565b808060010191505061148b565b600191505b5092915050565b600080600091505b6001805490508210156116d65761168a846001848154811015156115db57fe5b90600052602060002090600302016001018054600181600116156101000203166002900480601f0160208091040260200160405190810160405280929190818152602001828054600181600116156101000203166002900480156116805780601f1061165557610100808354040283529160200191611680565b820191906000526020600020905b81548152906001019060200180831161166357829003601f168201915b505050505061146f565b156116c9578260018381548110151561169f57fe5b906000526020600020906003020160020190805190602001906116c39291906120c7565b5061176f565b81806001019250506115bb565b60018054905090506001606060405190810160405280838152602001868152602001858152509080600181540180825580915050906001820390600052602060002090600302016000909192909190915060008201518160000155602082015181600101908051906020019061174d929190612147565b50604082015181600201908051906020019061176a929190612147565b505050505b50505050565b6000606060008084925060019150600090505b8251811015611886577f2c000000000000000000000000000000000000000000000000000000000000007effffffffffffffffffffffffffffffffffffffffffffffffffffffffffffff191683828151811015156117e257fe5b9060200101517f010000000000000000000000000000000000000000000000000000000000000090047f0100000000000000000000000000000000000000000000000000000000000000027effffffffffffffffffffffffffffffffffffffffffffffffffffffffffffff19161415611879576000811415801561186a575060018351038114155b156118785781806001019250505b5b8080600101915050611788565b819350505050919050565b60606000806000806000865114156118a857611aca565b85600390805190602001906118be9291906120c7565b5085600290805190602001906118d59291906120c7565b50859450600193506002925060029150600090505b81805460018160011615610100020316600290049050811015611ac957600182805460018160011615610100020316600290049050038114156119535760206040519081016040528060008152506002908051906020019061194d9291906120c7565b50611ac9565b7f2c000000000000000000000000000000000000000000000000000000000000007effffffffffffffffffffffffffffffffffffffffffffffffffffffffffffff1916828281546001816001161561010002031660029004811015156119b557fe5b8154600116156119d45790600052602060002090602091828204019190065b9054901a7f0100000000000000000000000000000000000000000000000000000000000000027effffffffffffffffffffffffffffffffffffffffffffffffffffffffffffff19161415611abc57809250611a30848487611fc2565b60039080519060200190611a459291906120c7565b5081805460018160011615610100020316600290049050600184011415611a9257602060405190810160405280600081525060029080519060200190611a8c9291906120c7565b50611ac9565b611aa160028401865187611fc2565b60029080519060200190611ab69291906120c7565b50611ac9565b80806001019150506118ea565b5b505050505050565b60008060008092505b600080549050831015611bc157611baa84600085815481101515611afb57fe5b90600052602060002090600302016001018054600181600116156101000203166002900480601f016020809104026020016040519081016040528092919081815260200182805460018160011615610100020316600290048015611ba05780601f10611b7557610100808354040283529160200191611ba0565b820191906000526020600020905b815481529060010190602001808311611b8357829003601f168201915b505050505061146f565b15611bb457611cf3565b8280600101935050611adb565b60008054905091506000606060405190810160405280848152602001868152602001838054600181600116156101000203166002900480601f016020809104026020016040519081016040528092919081815260200182805460018160011615610100020316600290048015611c785780601f10611c4d57610100808354040283529160200191611c78565b820191906000526020600020905b815481529060010190602001808311611c5b57829003601f168201915b505050505081525090806001815401808255809150509060018203906000526020600020906003020160009091929091909150600082015181600001556020820151816001019080519060200190611cd1929190612147565b506040820151816002019080519060200190611cee929190612147565b505050505b50505050565b600080600090505b600080549050811015611dea57611dd083600083815481101515611d2157fe5b90600052602060002090600302016001018054600181600116156101000203166002900480601f016020809104026020016040519081016040528092919081815260200182805460018160011615610100020316600290048015611dc65780601f10611d9b57610100808354040283529160200191611dc6565b820191906000526020600020905b815481529060010190602001808311611da957829003601f168201915b505050505061146f565b15611ddd57809150611deb565b8080600101915050611d01565b5b50919050565b606080606080606060008088955087945084518651016040519080825280601f01601f191660200182016040528015611e395781602001602082028038833980820191505090505b50935083925060009150600090505b8551811015611efb578581815181101515611e5f57fe5b9060200101517f010000000000000000000000000000000000000000000000000000000000000090047f0100000000000000000000000000000000000000000000000000000000000000028383806001019450815181101515611ebe57fe5b9060200101907effffffffffffffffffffffffffffffffffffffffffffffffffffffffffffff1916908160001a9053508080600101915050611e48565b600090505b8451811015611fb3578481815181101515611f1757fe5b9060200101517f010000000000000000000000000000000000000000000000000000000000000090047f0100000000000000000000000000000000000000000000000000000000000000028383806001019450815181101515611f7657fe5b9060200101907effffffffffffffffffffffffffffffffffffffffffffffffffffffffffffff1916908160001a9053508080600101915050611f00565b83965050505050505092915050565b60608060006001868603016040519080825280601f01601f191660200182016040528015611fff5781602001602082028038833980820191505090505b509150600090505b858503811115156120bb578360018783010381518110151561202557fe5b9060200101517f010000000000000000000000000000000000000000000000000000000000000090047f010000000000000000000000000000000000000000000000000000000000000002828281518110151561207e57fe5b9060200101907effffffffffffffffffffffffffffffffffffffffffffffffffffffffffffff1916908160001a9053508080600101915050612007565b81925050509392505050565b828054600181600116156101000203166002900490600052602060002090601f016020900481019282601f1061210857805160ff1916838001178555612136565b82800160010185558215612136579182015b8281111561213557825182559160200191906001019061211a565b5b50905061214391906121c7565b5090565b828054600181600116156101000203166002900490600052602060002090601f016020900481019282601f1061218857805160ff19168380011785556121b6565b828001600101855582156121b6579182015b828111156121b557825182559160200191906001019061219a565b5b5090506121c391906121c7565b5090565b6121e991905b808211156121e55760008160009055506001016121cd565b5090565b905600a165627a7a72305820225b69ab40c31e860eb13591c2057a414c1b66c2272d909ffdc69a73f71bbd6d0029",
  "source": "pragma solidity ^0.4.24;\n\n\n\ncontract ListRequest {\n    \n    \n    struct Dss {\n        uint Num;\n        string Name;\n        string HsptList;\n    }\n    \n    struct Hspt {\n        uint Num;\n        string Name;\n        string Ip;\n    }\n   \n   \n   //////relations////// \n    Dss [] public AllDssList;\n    Hspt [] public AllHsptList;\n    \n    \n    \n    //////internal basic function//////\n    //compare 2 string\n    function strCompare(string a, string b) internal returns (bool) {\n        if (bytes(a).length != bytes(b).length) {\n            return false;\n        }\n        for (uint i = 0; i < bytes(a).length; i ++) {\n            if(bytes(a)[i] != bytes(b)[i]) {\n                return false;\n            }\n        }\n        return true;\n    }\n    \n    //concatenate 2 string \n    function strConcat(string _a, string _b) internal returns (string){\n        bytes memory _ba = bytes(_a);\n        bytes memory _bb = bytes(_b);\n        string memory ret = new string(_ba.length + _bb.length);\n        bytes memory bret = bytes(ret);\n        uint k = 0;\n        for (uint i = 0; i < _ba.length; i++)bret[k++] = _ba[i];\n        for (i = 0; i < _bb.length; i++) bret[k++] = _bb[i];\n        return string(ret);\n    }\n    \n    //get a piece of string slice\n    function getSlice(uint begin, uint end, string text) internal pure returns (string) {\n        bytes memory a = new bytes(end-begin+1);\n        for(uint i=0;i<=end-begin;i++){\n            a[i] = bytes(text)[i+begin-1];\n        }\n        return string(a);    \n    }\n    \n    //count how many \"x\" in a \"x1,x2,x3,x4\" string \n    function strCount2c(string s) internal constant returns ( uint ){\n        bytes memory b = bytes(s);\n        uint counter = 1;\n        for ( uint i = 0 ; i < b.length ; i++ ){\n            if( b[i]==bytes1(\",\")){\n                if( i!=0&& i!=b.length-1 ) counter++;\n            }\n        }\n        return counter;\n    }\n    \n    //e.g. strSeprate(\"dalian,shanghai,beijing\");\n    //=>retTmp will be \"dalian\";strTmp will be \"shanghai,beijing\".\n    //e.g. specially:\n    //strSeprate(\"dalian\" or \"dalian,\");\n    //=>retTmp will be \"dalian\";strTmp will be \"\".\n    string strTmp ;\n    string retTmp ; \n    function strSeprate(string s) internal {\n        if(bytes(s).length == 0 ){return;}\n        retTmp = s;//prepare for input:\"dalian\"\n        strTmp = s;\n        string memory innerStrTmp = s;\n        uint begin = 1;\n        uint end = 2;\n        bytes tmp = bytes(strTmp);\n        for( uint i = 0 ; i < tmp.length ; i++ ){\n            if( i == tmp.length-1 ){//input:\"dalian\"\n                strTmp = \"\";\n                break;\n            }\n            if( tmp[i] == bytes1(\",\") ){\n                end = i;\n                retTmp = getSlice(begin,end,innerStrTmp);\n                if(end+1 == tmp.length) {//input:\"dalian,\"\n                    strTmp = \"\";\n                    break;\n                }\n                strTmp = getSlice(end+2,bytes(innerStrTmp).length,innerStrTmp);\n                break;\n            }\n        }\n    }\n    \n    //////internal function//////\n    //add Hspt\n    function addHspt( string _Name , string _Ip ) internal{\n        for( uint i = 0 ; i < AllHsptList.length ; i++ ){\n            if(strCompare(_Name,AllHsptList[i].Name)){ //change previous IP;\n                AllHsptList[i].Ip = _Ip;\n                return;\n            }\n        }\n        uint n = AllHsptList.length;\n        AllHsptList.push( Hspt({ Num:n , Name:_Name , Ip:_Ip }) );\n    }\n    \n    //add Hspt without Ip\n    function addHspt( string _Name ) internal {\n        for( uint i = 0 ; i < AllHsptList.length ; i++ ){\n            if(strCompare(_Name,AllHsptList[i].Name)){ \n                return;\n            }\n        }\n        uint n = AllHsptList.length;\n        AllHsptList.push( Hspt({ Num:n , Name:_Name , Ip:\"0\" }) );\n    } \n    \n    //Hspt Name => Hspt Num\n    function getHpstNum( string _Name ) internal constant returns ( uint ){\n        for( uint i = 0 ; i < AllHsptList.length ; i++ ){\n            if(strCompare(_Name,AllHsptList[i].Name)){ \n                return i;\n            }\n        }\n        return;\n    }\n    \n    //is a Hspt called \"_Name\" here in the list?\n    function isHpstHere( string _Name ) internal constant returns (bool){\n        for( uint i = 0 ; i < AllHsptList.length ; i++ ){\n            if(strCompare(_Name,AllHsptList[i].Name)){ \n                return true;\n            }\n        }\n        return false;\n    }\n    \n    //add disease\n    function addDss( string _Name )internal{\n        for( uint i = 0 ; i < AllDssList.length ; i++ ){\n            if(strCompare(_Name,AllDssList[i].Name)){ //already has the Dss\n                return;\n            }\n        }\n        uint n = AllDssList.length;\n        string str ;\n        AllDssList.push( Dss({ Num:n , Name:_Name , HsptList:str }) );\n    }\n    \n    //is a disease called \"_Name\" here in the list?\n    function isDssHere( string _Name ) internal constant returns (bool){\n        for( uint i = 0 ; i < AllDssList.length ; i++ ){\n            if(strCompare(_Name,AllDssList[i].Name)){ //already has the Dss\n                return true;\n            }\n        }\n        return false;\n    }\n    \n    //Dss Name => Dss Num \n    function getDssNum( string _Name ) internal constant returns ( uint ){\n        for( uint i = 0 ; i < AllDssList.length ; i++ ){\n            if(strCompare(_Name,AllDssList[i].Name)){ //already has the Dss\n                return i;\n            }\n        }\n        return;        \n    }\n    \n    //////request function//////\n    //input Hspt information into contract\n    //_Name:Hspt name\n    //_Ip:Hspt Ip\n    //_DssList:the disease names string that the Hspt has\n    //e.g. _DssList better looks like \"dss1,dss2,dss3\" or \"dss1,dss2,dss3,\"; DO NOT be like \",dss1,dss2\" \n    function loadHsptInfo( string _Name , string _Ip , string _DssList ) public{\n        addHspt( _Name , _Ip );\n        if(bytes(_DssList).length==0)return;\n        uint DssAmount = strCount2c(_DssList);\n        strTmp = _DssList;\n        /*\n        for( uint i = 0 ; i < DssAmount ; i ++){\n            strSeprate(strTmp);\n            addDss(retTmp);\n            AllDssList[getDssNum(retTmp)].HsptList=strConcat(AllDssList[getDssNum(retTmp)].HsptList,_Name);\n            AllDssList[getDssNum(retTmp)].HsptList=strConcat(AllDssList[getDssNum(retTmp)].HsptList,\",\");\n        }\n        */\n        //string strBuffer;\n        //string retBuffer;\n        \n        for( uint i = 0 ; i < DssAmount ; i ++){\n            strSeprate(strTmp);\n            addDss(retTmp);\n            AllDssList[getDssNum(retTmp)].HsptList=strConcat(AllDssList[getDssNum(retTmp)].HsptList,_Name);\n            AllDssList[getDssNum(retTmp)].HsptList=strConcat(AllDssList[getDssNum(retTmp)].HsptList,\",\");\n        }\n    \n    }\n    \n    //=>all Hspt name in a string\n    //test passed\n    function getAllHpstName() public constant returns ( string ) {\n        if( AllHsptList.length == 0 ) return \"no hosptial yet\";//AllHsptList empty\n        string memory ret ;\n        for( uint i = 0 ; i < AllHsptList.length ; i++ ){\n            ret = strConcat(ret, AllHsptList[i].Name );\n            ret = strConcat(ret, \",\");\n        }\n        return ret;\n    }\n    \n    //Hspt Name => Hspt Ip\n    //test passed\n    function getHpstIp( string _Name ) public constant returns ( string ){\n        if( AllHsptList.length == 0 ) return \"no hosptial yet\";\n        for( uint i = 0 ; i < AllHsptList.length ; i ++ ){\n            if(strCompare(_Name,AllHsptList[i].Name)) return AllHsptList[i].Ip;\n        }\n        return \"no such a Hspt\";\n    }\n    \n    //Dss Name => all the Hspts Name in a string that the Dss appears\n    //test passed\n    function getHpstFromDss( string _DssName ) public constant returns ( string ){\n        if( bytes(_DssName).length == 0 ) return \"input something\";\n        if( AllDssList.length == 0 ) return \"no disease yet\";\n        if( AllHsptList.length == 0 ) return \"no hosptial yet\";\n        return(AllDssList[getDssNum(_DssName)].HsptList);\n    }\n    \n} ",
  "sourcePath": "/Users/jhb/Documents/GitHub/blockhealth/bhreact/contracts/ListRequest.sol",
  "compiler": {
    "name": "solc",
    "version": "0.4.24+commit.e67f0147.Emscripten.clang"
  },
  "schemaVersion": "2.0.1",
  "updatedAt": "2018-11-04T07:53:23.247Z"
}